:020000040800F2
:10800000000002204D8A00089D8A00089D8A000811
:108010009D8A00089D8A00089D8A000800000000D3
:108020000000000000000000000000009D8A000821
:108030009D8A0008000000009D8A00089D8A0008B3
:108040009D8A00089D8A00089D8A00089D8A000874
:108050009D8A00089D8A00089D8A00089D8A000864
:108060009D8A00089D8A00089D8A00089D8A000854
:108070009D8A00089D8A00089D8A00089D8A000844
:108080009D8A00089D8A00089D8A00089D8A000834
:108090009D8A00089D8A00089D8A00089D8A000824
:1080A0009D8A00089D8A00089D8A00089D8A000814
:1080B0009D8A00089D8A00089D8A00089D8A000804
:1080C0009D8A00089D8A00089D8A00089D8A0008F4
:1080D0009D8A00089D8A00089D8A00089D8A0008E4
:1080E0002D8A00089D8A00089D8A00089D8A000844
:1080F0009D8A00089D8A00089D8A00089D8A0008C4
:108100009D8A00089D8A00089D8A00089D8A0008B3
:108110009D8A00089D8A00089D8A00089D8A0008A3
:108120009D8A00089D8A00089D8A00089D8A000893
:108130009D8A000800000000000000009D8A0008E1
:108140009D8A00089D8A00089D8A00089D8A000873
:108150009D8A00089D8A00089D8A00089D8A000863
:108160009D8A00089D8A00089D8A00089D8A000853
:108170009D8A00089D8A00089D8A00080000000072
:1081800000000000000000000000000000000000EF
:108190009D8A000800000000000000009D8A000881
:1081A0000000000000000000000000009D8A0008A0
:1081B0009D8A00089D8A00089D8A00089D8A000803
:0481C0009D8A00088C
:1081C40010B5054C237833B9044B13B10448AFF30D
:1081D40000800123237010BD000000200000000077
:1081E400F88A000808B5034B1BB103490348AFF3F1
:1081F400008008BD0000000004000020F88A000888
:1082040090B585B000AF78600023FB607B681B6885
:108214000121184600F0D2F97B685B79062B00F245
:10822400D08001A252F823F0C1820008FF82000826
:1082340085820008498200083B8300086B8300089C
:108244009B8300087B681B681A687B681B795B004A
:10825400032101FA03F3DB4319467B681B680A40D8
:108264001A607B681B681A687B681B795B000321B2
:1082740001FA03F319467B681B680A431A60A1E0FC
:108284007B681B681A687B681B795B00032101FA11
:1082940003F3DB4319467B681B680A401A607B685A
:1082A4001B681A687B681B795B00022101FA03F3DF
:1082B40019467B681B680A431A6083E07B681B6865
:1082C4001A687B681B795B00032101FA03F3DB4323
:1082D40019467B681B680A401A607B681B681A6829
:1082E4007B681B795B00012101FA03F3DB43194628
:1082F4007B681B680A401A6064E07B681B681A6824
:108304007B681B795B00032101FA03F3DB43194605
:108314007B681B680A401A607B681B681A687B6864
:108324001B795B00012101FA03F319467B681B6882
:108334000A431A6046E0954BDB687A681279114665
:1083440001228A401146914A0B43D3608F4B9B68AC
:108354007A681279114601228A40D24311468B4A27
:108364000B4093602EE0894B9B687A681279114622
:1083740001228A401146854A0B439360834BDB6894
:108384007A681279114601228A40D24311467F4A03
:108394000B40D36016E07D4B9B687A6812791146D6
:1083A40001228A401146794A0B439360774BDB687C
:1083B4007A681279114601228A401146734A0B43A6
:1083C400D36000BF7B689B791A467B681B795B008E
:1083D40002FA03F3FB607B681B689A687B681B796D
:1083E4005B00032101FA03F3DB4319467B681B6836
:1083F4000A409A607B681B6899687B681B68FA6806
:108404000A439A600023FB607B68DB791A467B6829
:108414001B795B0002FA03F3FB607B681B68DA6874
:108424007B681B795B00032101FA03F3DB431946E4
:108434007B681B680A43DA607B681B68D9687B68C1
:108444001B68FA680A43DA607B681B687A681279E9
:10845400D208D0B20246083253F822207B681B7936
:1084640003F007039B000F2101FA03F3DB431946D2
:108474007B681B68114000F1080243F822107B68F6
:108484001B687A681279D208D1B20A46083253F8C6
:1084940022207B685B7A18467B681B7903F007030C
:1084A4009B0000FA03F31C467B681B68084642EAFB
:1084B400040100F1080243F822107B681B799B0831
:1084C400FB727B681B7903F00303BB727B681B6838
:1084D4002F4A934239D07B681B682E4A934232D08C
:1084E4007B681B682C4A93422BD07B681B682B4A01
:1084F400934224D07B681B68294A93421DD07B6831
:108504001B68284A934216D07B681B68264A93420C
:108514000FD07B681B68254A934208D07B681B6890
:10852400234A934201D1082310E000230EE00723DD
:108534000CE006230AE0052308E0042306E00323F5
:1085440004E0022302E0012300E000237B72194BC4
:108554005B6C184A43F4804353647A7ABB7A9B0079
:1085640002FA03F1144AFB7A023342F82310074B50
:108574001B687A681279114601228A401146034A1F
:108584000B43136000BF1437BD4690BD003C01404F
:10859400000002400004024000080240000C0240B7
:1085A400001002400014024000180240001C024067
:1085B40000200240003802400038014080B483B0FB
:1085C40000AF78600B46FB70FB78012B62D17B68AF
:1085D400644A934206D1644B1B6B634A43F0010324
:1085E4001363B9E07B68614A934206D15E4B1B6B0F
:1085F4005D4A43F002031363AEE07B685C4A934236
:1086040006D1594B1B6B584A43F004031363A3E090
:108614007B68584A934206D1534B1B6B524A43F032
:108624000803136398E07B68534A934206D14E4B88
:108634001B6B4D4A43F0100313638DE07B684F4A74
:10864400934206D1484B1B6B474A43F02003136304
:1086540082E07B684A4A934206D1434B1B6B424AF1
:1086640043F04003136377E07B68464A934206D1A4
:108674003D4B1B6B3C4A43F0800313636CE07B6807
:10868400414A934268D1384B1B6B374A43F4807399
:10869400136361E07B68334A934206D1324B1B6B10
:1086A400314A23F00103136356E07B682F4A934257
:1086B40006D12D4B1B6B2C4A23F0020313634BE0B2
:1086C4007B682B4A934206D1274B1B6B264A23F027
:1086D4000403136340E07B68264A934206D1224B8D
:1086E4001B6B214A23F00803136335E07B68224A9D
:1086F400934206D11C4B1B6B1B4A23F010031363DC
:108704002AE07B681D4A934206D1174B1B6B164A1D
:1087140023F0200313631FE07B68194A934206D1B8
:10872400114B1B6B104A23F04003136314E07B6866
:10873400144A934206D10C4B1B6B0B4A23F0800363
:10874400136309E07B68104A934205D1064B1B6B07
:10875400054A23F48073136300BF0C37BD465DF8EC
:10876400047B7047000002400038024000040240CD
:1087740000080240000C02400010024000140240B5
:1087840000180240001C02400020024080B483B064
:1087940000AF78600B46FB701346BB70BB78012BAF
:1087A40009D17B685B69FA78012101FA02F21A4364
:1087B4007B685A6109E07B685B69FA78012101FAF8
:1087C40002F2D2431A407B685A6100BF0C37BD469F
:1087D4005DF8047B7047000080B483B000AF0346AB
:1087E4000A46FB711346BB71BB79012B33D1FB796C
:1087F4001F2B0AD8354B1B68FA79012101FA02F2C2
:108804001146324A0B43136059E0FB791F2B0FD9F1
:10881400FB793F2B0CD82E4B1B68FA7902F01F0210
:10882400012101FA02F21146294A0B43136046E082
:10883400FB793F2B43D9FB795F2B40D8254B1B6831
:10884400FA7902F03F02012101FA02F21146214AAB
:108854000B43136033E0FB791F2B0AD81E4B1B68B4
:10886400FA79012101FA02F211461B4A0B43136003
:1088740025E0FB791F2B0FD9FB793F2B0CD8174B25
:108884001B68FA7902F01F02012101FA02F2114673
:10889400124A0B43136012E0FB793F2B0FD9FB798B
:1088A4005F2B0CD80E4B1B68FA7902F03F020121B2
:1088B40001FA02F211460A4A0B431360FFE700BFB4
:1088C4000C37BD465DF8047B704700BF00E100E053
:1088D40004E100E008E100E080E100E084E100E080
:1088E40088E100E080B485B000AF03463960FB71D5
:1088F400FB799B08FB73FB7903F00303BB73BB7B1E
:10890400DB00DBB204337B73FB7B9B0003F160432E
:1089140003F5644319687B7B3A689A40FB7B9B00B0
:1089240003F1604303F564430A431A6000BF14373C
:10893400BD465DF8047B704780B483B000AF034646
:10894400FB710C4B5B69FA79012101FA02F21340C5
:10895400002B09D0074B5B69FA79012101FA02F275
:108964001146044A0B43536100BF0C37BD465DF802
:10897400047B7047003C014080B483B000AF002307
:108984007B6002E07B6801337B607B68044A93422E
:10899400F8D900BF00BF0C37BD465DF8047B7047B3
:1089A4001FA1070080B586B000AF07F10C030C22AD
:1089B4000021184600F071F8194BFB6005233B7445
:1089C40001237B740223BB740023FB7407F10C03A3
:1089D4001846FFF715FC3B460C220021184600F010
:1089E4005CF8104B3B600D233B7104237B71022325
:1089F400BB710223FB713B461846FFF701FC0F21B4
:108A04002820FFF76FFF01212820FFF7E5FE002251
:108A140005210348FFF7BAFEFFF7AEFFF7E700BFF3
:108A2400000002400008024080B500AF0D20FFF7AF
:108A340083FF012205210348FFF7A8FEFFF79CFFEF
:108A440000BF80BD000002400D488546AFF30080A2
:108A54000C480D490D4A002302E0D458C450043395
:108A6400C4188C42F9D30A4A0A4C002301E013606B
:108A74000432A242FBD300F019F8FFF793FFFEE79C
:108A8400000002200000002000000020188B0008D5
:108A9400000000201C000020FEE70244034693422D
:108AA40000D1704703F8011BF9E7000070B50D4DC4
:108AB4000D4C641BA4100026A64209D10B4D0C4C8E
:108AC40000F018F8641BA4100026A64205D170BD5E
:108AD40055F8043B98470136EEE755F8043B9847B0
:108AE4000136F2E7108B0008108B0008108B000889
:108AF400148B0008F8B500BFF8BC08BC9E4670474C
:0C8B0400F8B500BFF8BC08BC9E467047E6
:048B1000E9810008EF
:048B1400C58100080F
:0400000508008A4D18
:00000001FF
